{
  "contractName": "NFTMinter",
  "abi": [
    {
      "inputs": [
        {
          "internalType": "string",
          "name": "_baseURI",
          "type": "string"
        },
        {
          "internalType": "string",
          "name": "_cID",
          "type": "string"
        },
        {
          "internalType": "uint256",
          "name": "_totalAmount",
          "type": "uint256"
        },
        {
          "internalType": "uint256",
          "name": "_price",
          "type": "uint256"
        }
      ],
      "stateMutability": "nonpayable",
      "type": "constructor"
    },
    {
      "anonymous": false,
      "inputs": [
        {
          "indexed": true,
          "internalType": "address",
          "name": "owner",
          "type": "address"
        },
        {
          "indexed": true,
          "internalType": "address",
          "name": "approved",
          "type": "address"
        },
        {
          "indexed": true,
          "internalType": "uint256",
          "name": "tokenId",
          "type": "uint256"
        }
      ],
      "name": "Approval",
      "type": "event"
    },
    {
      "anonymous": false,
      "inputs": [
        {
          "indexed": true,
          "internalType": "address",
          "name": "owner",
          "type": "address"
        },
        {
          "indexed": true,
          "internalType": "address",
          "name": "operator",
          "type": "address"
        },
        {
          "indexed": false,
          "internalType": "bool",
          "name": "approved",
          "type": "bool"
        }
      ],
      "name": "ApprovalForAll",
      "type": "event"
    },
    {
      "anonymous": false,
      "inputs": [
        {
          "indexed": true,
          "internalType": "address",
          "name": "previousOwner",
          "type": "address"
        },
        {
          "indexed": true,
          "internalType": "address",
          "name": "newOwner",
          "type": "address"
        }
      ],
      "name": "OwnershipTransferred",
      "type": "event"
    },
    {
      "anonymous": false,
      "inputs": [
        {
          "indexed": true,
          "internalType": "address",
          "name": "from",
          "type": "address"
        },
        {
          "indexed": true,
          "internalType": "address",
          "name": "to",
          "type": "address"
        },
        {
          "indexed": true,
          "internalType": "uint256",
          "name": "tokenId",
          "type": "uint256"
        }
      ],
      "name": "Transfer",
      "type": "event"
    },
    {
      "anonymous": false,
      "inputs": [
        {
          "indexed": false,
          "internalType": "string",
          "name": "_hash",
          "type": "string"
        },
        {
          "indexed": false,
          "internalType": "uint256",
          "name": "_id",
          "type": "uint256"
        }
      ],
      "name": "minted",
      "type": "event"
    },
    {
      "inputs": [
        {
          "internalType": "address",
          "name": "to",
          "type": "address"
        },
        {
          "internalType": "uint256",
          "name": "tokenId",
          "type": "uint256"
        }
      ],
      "name": "approve",
      "outputs": [],
      "stateMutability": "nonpayable",
      "type": "function"
    },
    {
      "inputs": [
        {
          "internalType": "address",
          "name": "owner",
          "type": "address"
        }
      ],
      "name": "balanceOf",
      "outputs": [
        {
          "internalType": "uint256",
          "name": "",
          "type": "uint256"
        }
      ],
      "stateMutability": "view",
      "type": "function",
      "constant": true
    },
    {
      "inputs": [],
      "name": "baseURI",
      "outputs": [
        {
          "internalType": "string",
          "name": "",
          "type": "string"
        }
      ],
      "stateMutability": "view",
      "type": "function",
      "constant": true
    },
    {
      "inputs": [],
      "name": "cID",
      "outputs": [
        {
          "internalType": "string",
          "name": "",
          "type": "string"
        }
      ],
      "stateMutability": "view",
      "type": "function",
      "constant": true
    },
    {
      "inputs": [],
      "name": "fundAddress",
      "outputs": [
        {
          "internalType": "address",
          "name": "",
          "type": "address"
        }
      ],
      "stateMutability": "view",
      "type": "function",
      "constant": true
    },
    {
      "inputs": [
        {
          "internalType": "uint256",
          "name": "tokenId",
          "type": "uint256"
        }
      ],
      "name": "getApproved",
      "outputs": [
        {
          "internalType": "address",
          "name": "",
          "type": "address"
        }
      ],
      "stateMutability": "view",
      "type": "function",
      "constant": true
    },
    {
      "inputs": [
        {
          "internalType": "address",
          "name": "owner",
          "type": "address"
        },
        {
          "internalType": "address",
          "name": "operator",
          "type": "address"
        }
      ],
      "name": "isApprovedForAll",
      "outputs": [
        {
          "internalType": "bool",
          "name": "",
          "type": "bool"
        }
      ],
      "stateMutability": "view",
      "type": "function",
      "constant": true
    },
    {
      "inputs": [],
      "name": "name",
      "outputs": [
        {
          "internalType": "string",
          "name": "",
          "type": "string"
        }
      ],
      "stateMutability": "view",
      "type": "function",
      "constant": true
    },
    {
      "inputs": [],
      "name": "owner",
      "outputs": [
        {
          "internalType": "address",
          "name": "",
          "type": "address"
        }
      ],
      "stateMutability": "view",
      "type": "function",
      "constant": true
    },
    {
      "inputs": [
        {
          "internalType": "uint256",
          "name": "tokenId",
          "type": "uint256"
        }
      ],
      "name": "ownerOf",
      "outputs": [
        {
          "internalType": "address",
          "name": "",
          "type": "address"
        }
      ],
      "stateMutability": "view",
      "type": "function",
      "constant": true
    },
    {
      "inputs": [],
      "name": "price",
      "outputs": [
        {
          "internalType": "uint256",
          "name": "",
          "type": "uint256"
        }
      ],
      "stateMutability": "view",
      "type": "function",
      "constant": true
    },
    {
      "inputs": [],
      "name": "renounceOwnership",
      "outputs": [],
      "stateMutability": "nonpayable",
      "type": "function"
    },
    {
      "inputs": [
        {
          "internalType": "address",
          "name": "from",
          "type": "address"
        },
        {
          "internalType": "address",
          "name": "to",
          "type": "address"
        },
        {
          "internalType": "uint256",
          "name": "tokenId",
          "type": "uint256"
        }
      ],
      "name": "safeTransferFrom",
      "outputs": [],
      "stateMutability": "nonpayable",
      "type": "function"
    },
    {
      "inputs": [
        {
          "internalType": "address",
          "name": "from",
          "type": "address"
        },
        {
          "internalType": "address",
          "name": "to",
          "type": "address"
        },
        {
          "internalType": "uint256",
          "name": "tokenId",
          "type": "uint256"
        },
        {
          "internalType": "bytes",
          "name": "_data",
          "type": "bytes"
        }
      ],
      "name": "safeTransferFrom",
      "outputs": [],
      "stateMutability": "nonpayable",
      "type": "function"
    },
    {
      "inputs": [
        {
          "internalType": "address",
          "name": "operator",
          "type": "address"
        },
        {
          "internalType": "bool",
          "name": "approved",
          "type": "bool"
        }
      ],
      "name": "setApprovalForAll",
      "outputs": [],
      "stateMutability": "nonpayable",
      "type": "function"
    },
    {
      "inputs": [
        {
          "internalType": "bytes4",
          "name": "interfaceId",
          "type": "bytes4"
        }
      ],
      "name": "supportsInterface",
      "outputs": [
        {
          "internalType": "bool",
          "name": "",
          "type": "bool"
        }
      ],
      "stateMutability": "view",
      "type": "function",
      "constant": true
    },
    {
      "inputs": [],
      "name": "symbol",
      "outputs": [
        {
          "internalType": "string",
          "name": "",
          "type": "string"
        }
      ],
      "stateMutability": "view",
      "type": "function",
      "constant": true
    },
    {
      "inputs": [],
      "name": "totalAmount",
      "outputs": [
        {
          "internalType": "uint256",
          "name": "",
          "type": "uint256"
        }
      ],
      "stateMutability": "view",
      "type": "function",
      "constant": true
    },
    {
      "inputs": [
        {
          "internalType": "address",
          "name": "from",
          "type": "address"
        },
        {
          "internalType": "address",
          "name": "to",
          "type": "address"
        },
        {
          "internalType": "uint256",
          "name": "tokenId",
          "type": "uint256"
        }
      ],
      "name": "transferFrom",
      "outputs": [],
      "stateMutability": "nonpayable",
      "type": "function"
    },
    {
      "inputs": [
        {
          "internalType": "address",
          "name": "newOwner",
          "type": "address"
        }
      ],
      "name": "transferOwnership",
      "outputs": [],
      "stateMutability": "nonpayable",
      "type": "function"
    },
    {
      "inputs": [
        {
          "internalType": "string",
          "name": "_baseURI",
          "type": "string"
        }
      ],
      "name": "setBaseURI",
      "outputs": [],
      "stateMutability": "nonpayable",
      "type": "function"
    },
    {
      "inputs": [
        {
          "internalType": "address",
          "name": "_addr",
          "type": "address"
        }
      ],
      "name": "setFundAddress",
      "outputs": [],
      "stateMutability": "nonpayable",
      "type": "function"
    },
    {
      "inputs": [
        {
          "internalType": "uint256",
          "name": "_price",
          "type": "uint256"
        }
      ],
      "name": "setPrice",
      "outputs": [],
      "stateMutability": "nonpayable",
      "type": "function"
    },
    {
      "inputs": [
        {
          "internalType": "string",
          "name": "_cID",
          "type": "string"
        }
      ],
      "name": "setCID",
      "outputs": [],
      "stateMutability": "nonpayable",
      "type": "function"
    },
    {
      "inputs": [
        {
          "internalType": "uint256",
          "name": "_totalAmount",
          "type": "uint256"
        }
      ],
      "name": "setTotalAmount",
      "outputs": [],
      "stateMutability": "nonpayable",
      "type": "function"
    },
    {
      "inputs": [],
      "name": "getBalance",
      "outputs": [
        {
          "internalType": "uint256",
          "name": "",
          "type": "uint256"
        }
      ],
      "stateMutability": "view",
      "type": "function",
      "constant": true
    },
    {
      "inputs": [],
      "name": "getMintedAmount",
      "outputs": [
        {
          "internalType": "uint256",
          "name": "",
          "type": "uint256"
        }
      ],
      "stateMutability": "view",
      "type": "function",
      "constant": true
    },
    {
      "inputs": [
        {
          "internalType": "uint256",
          "name": "_tokenId",
          "type": "uint256"
        }
      ],
      "name": "tokenURI",
      "outputs": [
        {
          "internalType": "string",
          "name": "",
          "type": "string"
        }
      ],
      "stateMutability": "view",
      "type": "function",
      "constant": true
    },
    {
      "inputs": [],
      "name": "getAllTokens",
      "outputs": [
        {
          "components": [
            {
              "internalType": "uint256",
              "name": "id",
              "type": "uint256"
            },
            {
              "internalType": "string",
              "name": "uri",
              "type": "string"
            },
            {
              "internalType": "address",
              "name": "owner",
              "type": "address"
            }
          ],
          "internalType": "struct NFTMinter.RenderToken[]",
          "name": "",
          "type": "tuple[]"
        }
      ],
      "stateMutability": "view",
      "type": "function",
      "constant": true
    },
    {
      "inputs": [],
      "name": "getMyTokens",
      "outputs": [
        {
          "components": [
            {
              "internalType": "uint256",
              "name": "id",
              "type": "uint256"
            },
            {
              "internalType": "string",
              "name": "uri",
              "type": "string"
            },
            {
              "internalType": "address",
              "name": "owner",
              "type": "address"
            }
          ],
          "internalType": "struct NFTMinter.RenderToken[]",
          "name": "",
          "type": "tuple[]"
        }
      ],
      "stateMutability": "view",
      "type": "function",
      "constant": true
    },
    {
      "inputs": [
        {
          "internalType": "uint256",
          "name": "_amount",
          "type": "uint256"
        }
      ],
      "name": "createNFT",
      "outputs": [],
      "stateMutability": "payable",
      "type": "function",
      "payable": true
    },
    {
      "inputs": [],
      "name": "withdrawFund",
      "outputs": [],
      "stateMutability": "nonpayable",
      "type": "function"
    }
  ],
  "bytecode": "0x60806040523480156200001157600080fd5b50604051620046333803806200463383398181016040528101906200003791906200039b565b6040518060400160405280600481526020017f54657374000000000000000000000000000000000000000000000000000000008152506040518060400160405280600281526020017f54530000000000000000000000000000000000000000000000000000000000008152508160009080519060200190620000bb92919062000262565b508060019080519060200190620000d492919062000262565b50505062000109620000f462000194640100000000026401000000009004565b6200019c640100000000026401000000009004565b82600a90805190602001906200012192919062000262565b5080600c8190555083600990805190602001906200014192919062000262565b5081600b8190555033600d60006101000a81548173ffffffffffffffffffffffffffffffffffffffff021916908373ffffffffffffffffffffffffffffffffffffffff16021790555050505050620005cd565b600033905090565b6000600660009054906101000a900473ffffffffffffffffffffffffffffffffffffffff16905081600660006101000a81548173ffffffffffffffffffffffffffffffffffffffff021916908373ffffffffffffffffffffffffffffffffffffffff1602179055508173ffffffffffffffffffffffffffffffffffffffff168173ffffffffffffffffffffffffffffffffffffffff167f8be0079c531659141344cd1fd0a4f28419497f9722a3daafe3b4186f6b6457e060405160405180910390a35050565b8280546200027090620004d8565b90600052602060002090601f016020900481019282620002945760008555620002e0565b82601f10620002af57805160ff1916838001178555620002e0565b82800160010185558215620002e0579182015b82811115620002df578251825591602001919060010190620002c2565b5b509050620002ef9190620002f3565b5090565b5b808211156200030e576000816000905550600101620002f4565b5090565b600062000329620003238462000462565b62000439565b9050828152602081018484840111156200034257600080fd5b6200034f848285620004a2565b509392505050565b600082601f8301126200036957600080fd5b81516200037b84826020860162000312565b91505092915050565b6000815190506200039581620005b3565b92915050565b60008060008060808587031215620003b257600080fd5b600085015167ffffffffffffffff811115620003cd57600080fd5b620003db8782880162000357565b945050602085015167ffffffffffffffff811115620003f957600080fd5b620004078782880162000357565b93505060406200041a8782880162000384565b92505060606200042d8782880162000384565b91505092959194509250565b60006200044562000458565b90506200045382826200050e565b919050565b6000604051905090565b600067ffffffffffffffff82111562000480576200047f62000573565b5b6200048b82620005a2565b9050602081019050919050565b6000819050919050565b60005b83811015620004c2578082015181840152602081019050620004a5565b83811115620004d2576000848401525b50505050565b60006002820490506001821680620004f157607f821691505b6020821081141562000508576200050762000544565b5b50919050565b6200051982620005a2565b810181811067ffffffffffffffff821117156200053b576200053a62000573565b5b80604052505050565b7f4e487b7100000000000000000000000000000000000000000000000000000000600052602260045260246000fd5b7f4e487b7100000000000000000000000000000000000000000000000000000000600052604160045260246000fd5b6000601f19601f8301169050919050565b620005be8162000498565b8114620005ca57600080fd5b50565b61405680620005dd6000396000f3fe608060405260043610610200576000357c01000000000000000000000000000000000000000000000000000000009004806385dc30041161011f578063a22cb465116100b2578063e07fa3c111610081578063e07fa3c1146106dc578063e82bef29146106f3578063e985e9c51461071e578063f2fde38b1461075b57610200565b8063a22cb46514610624578063b88d4fde1461064d578063c3d6ee7f14610676578063c87b56dd1461069f57610200565b806395d89b41116100ee57806395d89b411461058757806396492155146105b257806399a2f2d7146105ce578063a035b1fe146105f957610200565b806385dc3004146104df57806388ab4168146105085780638da5cb5b1461053357806391b7f5ed1461055e57610200565b806342842e0e116101975780636352211e116101665780636352211e146104235780636c0360eb1461046057806370a082311461048b578063715018a6146104c857610200565b806342842e0e1461037d57806355f804b3146103a65780635b3b136a146103cf57806360df8a1f146103fa57610200565b806312065fe0116101d357806312065fe0146102d35780631a39d8ef146102fe57806323b872dd146103295780632a5c792a1461035257610200565b806301ffc9a71461020557806306fdde0314610242578063081812fc1461026d578063095ea7b3146102aa575b600080fd5b34801561021157600080fd5b5061022c60048036038101906102279190612c55565b610784565b604051610239919061333f565b60405180910390f35b34801561024e57600080fd5b50610257610866565b604051610264919061335a565b60405180910390f35b34801561027957600080fd5b50610294600480360381019061028f9190612ce8565b6108f8565b6040516102a191906132b6565b60405180910390f35b3480156102b657600080fd5b506102d160048036038101906102cc9190612c19565b61097d565b005b3480156102df57600080fd5b506102e8610a95565b6040516102f5919061360c565b60405180910390f35b34801561030a57600080fd5b50610313610ab4565b604051610320919061360c565b60405180910390f35b34801561033557600080fd5b50610350600480360381019061034b9190612b13565b610aba565b005b34801561035e57600080fd5b50610367610b1a565b604051610374919061331d565b60405180910390f35b34801561038957600080fd5b506103a4600480360381019061039f9190612b13565b610c77565b005b3480156103b257600080fd5b506103cd60048036038101906103c89190612ca7565b610c97565b005b3480156103db57600080fd5b506103e4610d2d565b6040516103f1919061331d565b60405180910390f35b34801561040657600080fd5b50610421600480360381019061041c9190612ce8565b610f40565b005b34801561042f57600080fd5b5061044a60048036038101906104459190612ce8565b610fc6565b60405161045791906132b6565b60405180910390f35b34801561046c57600080fd5b50610475611078565b604051610482919061335a565b60405180910390f35b34801561049757600080fd5b506104b260048036038101906104ad9190612aae565b611106565b6040516104bf919061360c565b60405180910390f35b3480156104d457600080fd5b506104dd6111be565b005b3480156104eb57600080fd5b5061050660048036038101906105019190612aae565b611246565b005b34801561051457600080fd5b5061051d611306565b60405161052a919061360c565b60405180910390f35b34801561053f57600080fd5b50610548611317565b60405161055591906132b6565b60405180910390f35b34801561056a57600080fd5b5061058560048036038101906105809190612ce8565b611341565b005b34801561059357600080fd5b5061059c6113c7565b6040516105a9919061335a565b60405180910390f35b6105cc60048036038101906105c79190612ce8565b611459565b005b3480156105da57600080fd5b506105e361160c565b6040516105f0919061335a565b60405180910390f35b34801561060557600080fd5b5061060e61169a565b60405161061b919061360c565b60405180910390f35b34801561063057600080fd5b5061064b60048036038101906106469190612bdd565b6116a0565b005b34801561065957600080fd5b50610674600480360381019061066f9190612b62565b6116b6565b005b34801561068257600080fd5b5061069d60048036038101906106989190612ca7565b611718565b005b3480156106ab57600080fd5b506106c660048036038101906106c19190612ce8565b6117ae565b6040516106d3919061335a565b60405180910390f35b3480156106e857600080fd5b506106f161186b565b005b3480156106ff57600080fd5b506107086119b8565b60405161071591906132b6565b60405180910390f35b34801561072a57600080fd5b5061074560048036038101906107409190612ad7565b6119de565b604051610752919061333f565b60405180910390f35b34801561076757600080fd5b50610782600480360381019061077d9190612aae565b611a72565b005b60007f80ac58cd000000000000000000000000000000000000000000000000000000007bffffffffffffffffffffffffffffffffffffffffffffffffffffffff1916827bffffffffffffffffffffffffffffffffffffffffffffffffffffffff1916148061084f57507f5b5e139f000000000000000000000000000000000000000000000000000000007bffffffffffffffffffffffffffffffffffffffffffffffffffffffff1916827bffffffffffffffffffffffffffffffffffffffffffffffffffffffff1916145b8061085f575061085e82611b6a565b5b9050919050565b6060600080546108759061391b565b80601f01602080910402602001604051908101604052809291908181526020018280546108a19061391b565b80156108ee5780601f106108c3576101008083540402835291602001916108ee565b820191906000526020600020905b8154815290600101906020018083116108d157829003601f168201915b5050505050905090565b600061090382611bd4565b610942576040517f08c379a00000000000000000000000000000000000000000000000000000000081526004016109399061352c565b60405180910390fd5b6004600083815260200190815260200160002060009054906101000a900473ffffffffffffffffffffffffffffffffffffffff169050919050565b600061098882610fc6565b90508073ffffffffffffffffffffffffffffffffffffffff168373ffffffffffffffffffffffffffffffffffffffff1614156109f9576040517f08c379a00000000000000000000000000000000000000000000000000000000081526004016109f0906135ac565b60405180910390fd5b8073ffffffffffffffffffffffffffffffffffffffff16610a18611c40565b73ffffffffffffffffffffffffffffffffffffffff161480610a475750610a4681610a41611c40565b6119de565b5b610a86576040517f08c379a0000000000000000000000000000000000000000000000000000000008152600401610a7d9061348c565b60405180910390fd5b610a908383611c48565b505050565b60003073ffffffffffffffffffffffffffffffffffffffff1631905090565b600b5481565b610acb610ac5611c40565b82611d01565b610b0a576040517f08c379a0000000000000000000000000000000000000000000000000000000008152600401610b01906135ec565b60405180910390fd5b610b15838383611ddf565b505050565b60606000610b28600761203b565b90506000808267ffffffffffffffff811115610b6d577f4e487b7100000000000000000000000000000000000000000000000000000000600052604160045260246000fd5b604051908082528060200260200182016040528015610ba657816020015b610b9361289b565b815260200190600190039081610b8b5790505b50905060005b83811015610c6d57610bbd81611bd4565b15610c5a576000610bcd826117ae565b90506040518060600160405280838152602001828152602001610bef84610fc6565b73ffffffffffffffffffffffffffffffffffffffff16815250838580610c149061397e565b965081518110610c4d577f4e487b7100000000000000000000000000000000000000000000000000000000600052603260045260246000fd5b6020026020010181905250505b8080610c659061397e565b915050610bac565b5080935050505090565b610c92838383604051806020016040528060008152506116b6565b505050565b610c9f611c40565b73ffffffffffffffffffffffffffffffffffffffff16610cbd611317565b73ffffffffffffffffffffffffffffffffffffffff1614610d13576040517f08c379a0000000000000000000000000000000000000000000000000000000008152600401610d0a9061354c565b60405180910390fd5b8060099080519060200190610d299291906128d2565b5050565b60606000610d3b600761203b565b905060008060005b83811015610dba57610d5481611bd4565b8015610d9357503373ffffffffffffffffffffffffffffffffffffffff16610d7b82610fc6565b73ffffffffffffffffffffffffffffffffffffffff16145b15610da7578180610da39061397e565b9250505b8080610db29061397e565b915050610d43565b60008267ffffffffffffffff811115610dfc577f4e487b7100000000000000000000000000000000000000000000000000000000600052604160045260246000fd5b604051908082528060200260200182016040528015610e3557816020015b610e2261289b565b815260200190600190039081610e1a5790505b509050600091505b84821015610f3557610e4e82611bd4565b8015610e8d57503373ffffffffffffffffffffffffffffffffffffffff16610e7583610fc6565b73ffffffffffffffffffffffffffffffffffffffff16145b15610f22576000610e9d836117ae565b905060405180606001604052808481526020018281526020013373ffffffffffffffffffffffffffffffffffffffff16815250828680610edc9061397e565b975081518110610f15577f4e487b7100000000000000000000000000000000000000000000000000000000600052603260045260246000fd5b6020026020010181905250505b8180610f2d9061397e565b925050610e3d565b809550505050505090565b610f48611c40565b73ffffffffffffffffffffffffffffffffffffffff16610f66611317565b73ffffffffffffffffffffffffffffffffffffffff1614610fbc576040517f08c379a0000000000000000000000000000000000000000000000000000000008152600401610fb39061354c565b60405180910390fd5b80600b8190555050565b6000806002600084815260200190815260200160002060009054906101000a900473ffffffffffffffffffffffffffffffffffffffff169050600073ffffffffffffffffffffffffffffffffffffffff168173ffffffffffffffffffffffffffffffffffffffff16141561106f576040517f08c379a0000000000000000000000000000000000000000000000000000000008152600401611066906134cc565b60405180910390fd5b80915050919050565b600980546110859061391b565b80601f01602080910402602001604051908101604052809291908181526020018280546110b19061391b565b80156110fe5780601f106110d3576101008083540402835291602001916110fe565b820191906000526020600020905b8154815290600101906020018083116110e157829003601f168201915b505050505081565b60008073ffffffffffffffffffffffffffffffffffffffff168273ffffffffffffffffffffffffffffffffffffffff161415611177576040517f08c379a000000000000000000000000000000000000000000000000000000000815260040161116e906134ac565b60405180910390fd5b600360008373ffffffffffffffffffffffffffffffffffffffff1673ffffffffffffffffffffffffffffffffffffffff168152602001908152602001600020549050919050565b6111c6611c40565b73ffffffffffffffffffffffffffffffffffffffff166111e4611317565b73ffffffffffffffffffffffffffffffffffffffff161461123a576040517f08c379a00000000000000000000000000000000000000000000000000000000081526004016112319061354c565b60405180910390fd5b6112446000612049565b565b61124e611c40565b73ffffffffffffffffffffffffffffffffffffffff1661126c611317565b73ffffffffffffffffffffffffffffffffffffffff16146112c2576040517f08c379a00000000000000000000000000000000000000000000000000000000081526004016112b99061354c565b60405180910390fd5b80600d60006101000a81548173ffffffffffffffffffffffffffffffffffffffff021916908373ffffffffffffffffffffffffffffffffffffffff16021790555050565b6000611312600761203b565b905090565b6000600660009054906101000a900473ffffffffffffffffffffffffffffffffffffffff16905090565b611349611c40565b73ffffffffffffffffffffffffffffffffffffffff16611367611317565b73ffffffffffffffffffffffffffffffffffffffff16146113bd576040517f08c379a00000000000000000000000000000000000000000000000000000000081526004016113b49061354c565b60405180910390fd5b80600c8190555050565b6060600180546113d69061391b565b80601f01602080910402602001604051908101604052809291908181526020018280546114029061391b565b801561144f5780601f106114245761010080835404028352916020019161144f565b820191906000526020600020905b81548152906001019060200180831161143257829003601f168201915b5050505050905090565b6000811161149c576040517f08c379a00000000000000000000000000000000000000000000000000000000081526004016114939061340c565b60405180910390fd5b600b54816114aa600761203b565b6114b49190613750565b11156114f5576040517f08c379a00000000000000000000000000000000000000000000000000000000081526004016114ec9061350c565b60405180910390fd5b600c548161150391906137d7565b341015611545576040517f08c379a000000000000000000000000000000000000000000000000000000000815260040161153c9061358c565b60405180910390fd5b6000606060005b838110156116065761155e600761203b565b92506009600a6115796001866115749190613750565b61210f565b60405160200161158b9392919061326f565b60405160208183030381529060405291506115a633846122db565b6115b083836124a9565b6115ba60076124d5565b7f0ecd636064013af50b77d5437f5a7fb9aed532a69a677440d069bdd4aab1a9bf82846040516115eb92919061337c565b60405180910390a180806115fe9061397e565b91505061154c565b50505050565b600a80546116199061391b565b80601f01602080910402602001604051908101604052809291908181526020018280546116459061391b565b80156116925780601f1061166757610100808354040283529160200191611692565b820191906000526020600020905b81548152906001019060200180831161167557829003601f168201915b505050505081565b600c5481565b6116b26116ab611c40565b83836124eb565b5050565b6116c76116c1611c40565b83611d01565b611706576040517f08c379a00000000000000000000000000000000000000000000000000000000081526004016116fd906135ec565b60405180910390fd5b61171284848484612658565b50505050565b611720611c40565b73ffffffffffffffffffffffffffffffffffffffff1661173e611317565b73ffffffffffffffffffffffffffffffffffffffff1614611794576040517f08c379a000000000000000000000000000000000000000000000000000000000815260040161178b9061354c565b60405180910390fd5b80600a90805190602001906117aa9291906128d2565b5050565b60606117b982611bd4565b6117c257600080fd5b60006008600084815260200190815260200160002080546117e29061391b565b80601f016020809104026020016040519081016040528092919081815260200182805461180e9061391b565b801561185b5780601f106118305761010080835404028352916020019161185b565b820191906000526020600020905b81548152906001019060200180831161183e57829003601f168201915b5050505050905080915050919050565b611873611c40565b73ffffffffffffffffffffffffffffffffffffffff16611891611317565b73ffffffffffffffffffffffffffffffffffffffff16146118e7576040517f08c379a00000000000000000000000000000000000000000000000000000000081526004016118de9061354c565b60405180910390fd5b60003073ffffffffffffffffffffffffffffffffffffffff1631905060008111611946576040517f08c379a000000000000000000000000000000000000000000000000000000000815260040161193d906135cc565b60405180910390fd5b6000600d60009054906101000a900473ffffffffffffffffffffffffffffffffffffffff1690508073ffffffffffffffffffffffffffffffffffffffff166108fc839081150290604051600060405180830381858888f193505050501580156119b3573d6000803e3d6000fd5b505050565b600d60009054906101000a900473ffffffffffffffffffffffffffffffffffffffff1681565b6000600560008473ffffffffffffffffffffffffffffffffffffffff1673ffffffffffffffffffffffffffffffffffffffff16815260200190815260200160002060008373ffffffffffffffffffffffffffffffffffffffff1673ffffffffffffffffffffffffffffffffffffffff16815260200190815260200160002060009054906101000a900460ff16905092915050565b611a7a611c40565b73ffffffffffffffffffffffffffffffffffffffff16611a98611317565b73ffffffffffffffffffffffffffffffffffffffff1614611aee576040517f08c379a0000000000000000000000000000000000000000000000000000000008152600401611ae59061354c565b60405180910390fd5b600073ffffffffffffffffffffffffffffffffffffffff168173ffffffffffffffffffffffffffffffffffffffff161415611b5e576040517f08c379a0000000000000000000000000000000000000000000000000000000008152600401611b55906133cc565b60405180910390fd5b611b6781612049565b50565b60007f01ffc9a7000000000000000000000000000000000000000000000000000000007bffffffffffffffffffffffffffffffffffffffffffffffffffffffff1916827bffffffffffffffffffffffffffffffffffffffffffffffffffffffff1916149050919050565b60008073ffffffffffffffffffffffffffffffffffffffff166002600084815260200190815260200160002060009054906101000a900473ffffffffffffffffffffffffffffffffffffffff1673ffffffffffffffffffffffffffffffffffffffff1614159050919050565b600033905090565b816004600083815260200190815260200160002060006101000a81548173ffffffffffffffffffffffffffffffffffffffff021916908373ffffffffffffffffffffffffffffffffffffffff160217905550808273ffffffffffffffffffffffffffffffffffffffff16611cbb83610fc6565b73ffffffffffffffffffffffffffffffffffffffff167f8c5be1e5ebec7d5bd14f71427d1e84f3dd0314c0f7b2291e5b200ac8c7c3b92560405160405180910390a45050565b6000611d0c82611bd4565b611d4b576040517f08c379a0000000000000000000000000000000000000000000000000000000008152600401611d429061346c565b60405180910390fd5b6000611d5683610fc6565b90508073ffffffffffffffffffffffffffffffffffffffff168473ffffffffffffffffffffffffffffffffffffffff161480611dc557508373ffffffffffffffffffffffffffffffffffffffff16611dad846108f8565b73ffffffffffffffffffffffffffffffffffffffff16145b80611dd65750611dd581856119de565b5b91505092915050565b8273ffffffffffffffffffffffffffffffffffffffff16611dff82610fc6565b73ffffffffffffffffffffffffffffffffffffffff1614611e55576040517f08c379a0000000000000000000000000000000000000000000000000000000008152600401611e4c9061356c565b60405180910390fd5b600073ffffffffffffffffffffffffffffffffffffffff168273ffffffffffffffffffffffffffffffffffffffff161415611ec5576040517f08c379a0000000000000000000000000000000000000000000000000000000008152600401611ebc9061342c565b60405180910390fd5b611ed08383836126b4565b611edb600082611c48565b6001600360008573ffffffffffffffffffffffffffffffffffffffff1673ffffffffffffffffffffffffffffffffffffffff1681526020019081526020016000206000828254611f2b9190613831565b925050819055506001600360008473ffffffffffffffffffffffffffffffffffffffff1673ffffffffffffffffffffffffffffffffffffffff1681526020019081526020016000206000828254611f829190613750565b92505081905550816002600083815260200190815260200160002060006101000a81548173ffffffffffffffffffffffffffffffffffffffff021916908373ffffffffffffffffffffffffffffffffffffffff160217905550808273ffffffffffffffffffffffffffffffffffffffff168473ffffffffffffffffffffffffffffffffffffffff167fddf252ad1be2c89b69c2b068fc378daa952ba7f163c4a11628f55a4df523b3ef60405160405180910390a4505050565b600081600001549050919050565b6000600660009054906101000a900473ffffffffffffffffffffffffffffffffffffffff16905081600660006101000a81548173ffffffffffffffffffffffffffffffffffffffff021916908373ffffffffffffffffffffffffffffffffffffffff1602179055508173ffffffffffffffffffffffffffffffffffffffff168173ffffffffffffffffffffffffffffffffffffffff167f8be0079c531659141344cd1fd0a4f28419497f9722a3daafe3b4186f6b6457e060405160405180910390a35050565b60606000821415612157576040518060400160405280600181526020017f300000000000000000000000000000000000000000000000000000000000000081525090506122d6565b600082905060005b600082146121895780806121729061397e565b915050600a8261218291906137a6565b915061215f565b60008167ffffffffffffffff8111156121cb577f4e487b7100000000000000000000000000000000000000000000000000000000600052604160045260246000fd5b6040519080825280601f01601f1916602001820160405280156121fd5781602001600182028036833780820191505090505b5090505b600085146122cf576001826122169190613831565b9150600a8561222591906139c7565b60306122319190613750565b7f01000000000000000000000000000000000000000000000000000000000000000281838151811061228c577f4e487b7100000000000000000000000000000000000000000000000000000000600052603260045260246000fd5b60200101907effffffffffffffffffffffffffffffffffffffffffffffffffffffffffffff1916908160001a905350600a856122c891906137a6565b9450612201565b8093505050505b919050565b600073ffffffffffffffffffffffffffffffffffffffff168273ffffffffffffffffffffffffffffffffffffffff16141561234b576040517f08c379a0000000000000000000000000000000000000000000000000000000008152600401612342906134ec565b60405180910390fd5b61235481611bd4565b15612394576040517f08c379a000000000000000000000000000000000000000000000000000000000815260040161238b906133ec565b60405180910390fd5b6123a0600083836126b4565b6001600360008473ffffffffffffffffffffffffffffffffffffffff1673ffffffffffffffffffffffffffffffffffffffff16815260200190815260200160002060008282546123f09190613750565b92505081905550816002600083815260200190815260200160002060006101000a81548173ffffffffffffffffffffffffffffffffffffffff021916908373ffffffffffffffffffffffffffffffffffffffff160217905550808273ffffffffffffffffffffffffffffffffffffffff16600073ffffffffffffffffffffffffffffffffffffffff167fddf252ad1be2c89b69c2b068fc378daa952ba7f163c4a11628f55a4df523b3ef60405160405180910390a45050565b806008600084815260200190815260200160002090805190602001906124d09291906128d2565b505050565b6001816000016000828254019250508190555050565b8173ffffffffffffffffffffffffffffffffffffffff168373ffffffffffffffffffffffffffffffffffffffff16141561255a576040517f08c379a00000000000000000000000000000000000000000000000000000000081526004016125519061344c565b60405180910390fd5b80600560008573ffffffffffffffffffffffffffffffffffffffff1673ffffffffffffffffffffffffffffffffffffffff16815260200190815260200160002060008473ffffffffffffffffffffffffffffffffffffffff1673ffffffffffffffffffffffffffffffffffffffff16815260200190815260200160002060006101000a81548160ff0219169083151502179055508173ffffffffffffffffffffffffffffffffffffffff168373ffffffffffffffffffffffffffffffffffffffff167f17307eab39ab6107e8899845ad3d59bd9653f200f220920489ca2b5937696c318360405161264b919061333f565b60405180910390a3505050565b612663848484611ddf565b61266f848484846126b9565b6126ae576040517f08c379a00000000000000000000000000000000000000000000000000000000081526004016126a5906133ac565b60405180910390fd5b50505050565b505050565b60006126da8473ffffffffffffffffffffffffffffffffffffffff16612888565b1561287b578373ffffffffffffffffffffffffffffffffffffffff1663150b7a02612703611c40565b8786866040518563ffffffff167c010000000000000000000000000000000000000000000000000000000002815260040161274194939291906132d1565b602060405180830381600087803b15801561275b57600080fd5b505af192505050801561278c57506040513d601f19601f820116820180604052508101906127899190612c7e565b60015b61280f573d80600081146127bc576040519150601f19603f3d011682016040523d82523d6000602084013e6127c1565b606091505b50600081511415612807576040517f08c379a00000000000000000000000000000000000000000000000000000000081526004016127fe906133ac565b60405180910390fd5b805181602001fd5b63150b7a027c0100000000000000000000000000000000000000000000000000000000027bffffffffffffffffffffffffffffffffffffffffffffffffffffffff1916817bffffffffffffffffffffffffffffffffffffffffffffffffffffffff191614915050612880565b600190505b949350505050565b600080823b905060008111915050919050565b60405180606001604052806000815260200160608152602001600073ffffffffffffffffffffffffffffffffffffffff1681525090565b8280546128de9061391b565b90600052602060002090601f0160209004810192826129005760008555612947565b82601f1061291957805160ff1916838001178555612947565b82800160010185558215612947579182015b8281111561294657825182559160200191906001019061292b565b5b5090506129549190612958565b5090565b5b80821115612971576000816000905550600101612959565b5090565b60006129886129838461364c565b613627565b9050828152602081018484840111156129a057600080fd5b6129ab8482856138d9565b509392505050565b60006129c66129c18461367d565b613627565b9050828152602081018484840111156129de57600080fd5b6129e98482856138d9565b509392505050565b600081359050612a0081613fc4565b92915050565b600081359050612a1581613fdb565b92915050565b600081359050612a2a81613ff2565b92915050565b600081519050612a3f81613ff2565b92915050565b600082601f830112612a5657600080fd5b8135612a66848260208601612975565b91505092915050565b600082601f830112612a8057600080fd5b8135612a908482602086016129b3565b91505092915050565b600081359050612aa881614009565b92915050565b600060208284031215612ac057600080fd5b6000612ace848285016129f1565b91505092915050565b60008060408385031215612aea57600080fd5b6000612af8858286016129f1565b9250506020612b09858286016129f1565b9150509250929050565b600080600060608486031215612b2857600080fd5b6000612b36868287016129f1565b9350506020612b47868287016129f1565b9250506040612b5886828701612a99565b9150509250925092565b60008060008060808587031215612b7857600080fd5b6000612b86878288016129f1565b9450506020612b97878288016129f1565b9350506040612ba887828801612a99565b925050606085013567ffffffffffffffff811115612bc557600080fd5b612bd187828801612a45565b91505092959194509250565b60008060408385031215612bf057600080fd5b6000612bfe858286016129f1565b9250506020612c0f85828601612a06565b9150509250929050565b60008060408385031215612c2c57600080fd5b6000612c3a858286016129f1565b9250506020612c4b85828601612a99565b9150509250929050565b600060208284031215612c6757600080fd5b6000612c7584828501612a1b565b91505092915050565b600060208284031215612c9057600080fd5b6000612c9e84828501612a30565b91505092915050565b600060208284031215612cb957600080fd5b600082013567ffffffffffffffff811115612cd357600080fd5b612cdf84828501612a6f565b91505092915050565b600060208284031215612cfa57600080fd5b6000612d0884828501612a99565b91505092915050565b6000612d1d8383613201565b905092915050565b612d2e81613865565b82525050565b612d3d81613865565b82525050565b6000612d4e826136d3565b612d588185613701565b935083602082028501612d6a856136ae565b8060005b85811015612da65784840389528151612d878582612d11565b9450612d92836136f4565b925060208a01995050600181019050612d6e565b50829750879550505050505092915050565b612dc181613877565b82525050565b6000612dd2826136de565b612ddc8185613712565b9350612dec8185602086016138e8565b612df581613ab4565b840191505092915050565b6000612e0b826136e9565b612e158185613723565b9350612e258185602086016138e8565b612e2e81613ab4565b840191505092915050565b6000612e44826136e9565b612e4e8185613734565b9350612e5e8185602086016138e8565b612e6781613ab4565b840191505092915050565b6000612e7d826136e9565b612e878185613745565b9350612e978185602086016138e8565b80840191505092915050565b60008154612eb08161391b565b612eba8186613745565b94506001821660008114612ed55760018114612ee657612f19565b60ff19831686528186019350612f19565b612eef856136be565b60005b83811015612f1157815481890152600182019150602081019050612ef2565b838801955050505b50505092915050565b6000612f2f603283613734565b9150612f3a82613ac5565b604082019050919050565b6000612f52602683613734565b9150612f5d82613b14565b604082019050919050565b6000612f75601c83613734565b9150612f8082613b63565b602082019050919050565b6000612f98602083613734565b9150612fa382613b8c565b602082019050919050565b6000612fbb602483613734565b9150612fc682613bb5565b604082019050919050565b6000612fde601983613734565b9150612fe982613c04565b602082019050919050565b6000613001602c83613734565b915061300c82613c2d565b604082019050919050565b6000613024603883613734565b915061302f82613c7c565b604082019050919050565b6000613047602a83613734565b915061305282613ccb565b604082019050919050565b600061306a602983613734565b915061307582613d1a565b604082019050919050565b600061308d602083613734565b915061309882613d69565b602082019050919050565b60006130b0601b83613734565b91506130bb82613d92565b602082019050919050565b60006130d3602c83613734565b91506130de82613dbb565b604082019050919050565b60006130f6600583613745565b915061310182613e0a565b600582019050919050565b6000613119602083613734565b915061312482613e33565b602082019050919050565b600061313c602983613734565b915061314782613e5c565b604082019050919050565b600061315f601283613734565b915061316a82613eab565b602082019050919050565b6000613182602183613734565b915061318d82613ed4565b604082019050919050565b60006131a5601383613734565b91506131b082613f23565b602082019050919050565b60006131c8603183613734565b91506131d382613f4c565b604082019050919050565b60006131eb600183613745565b91506131f682613f9b565b600182019050919050565b60006060830160008301516132196000860182613251565b50602083015184820360208601526132318282612e00565b91505060408301516132466040860182612d25565b508091505092915050565b61325a816138cf565b82525050565b613269816138cf565b82525050565b600061327b8286612ea3565b91506132878285612ea3565b9150613292826131de565b915061329e8284612e72565b91506132a9826130e9565b9150819050949350505050565b60006020820190506132cb6000830184612d34565b92915050565b60006080820190506132e66000830187612d34565b6132f36020830186612d34565b6133006040830185613260565b81810360608301526133128184612dc7565b905095945050505050565b600060208201905081810360008301526133378184612d43565b905092915050565b60006020820190506133546000830184612db8565b92915050565b600060208201905081810360008301526133748184612e39565b905092915050565b600060408201905081810360008301526133968185612e39565b90506133a56020830184613260565b9392505050565b600060208201905081810360008301526133c581612f22565b9050919050565b600060208201905081810360008301526133e581612f45565b9050919050565b6000602082019050818103600083015261340581612f68565b9050919050565b6000602082019050818103600083015261342581612f8b565b9050919050565b6000602082019050818103600083015261344581612fae565b9050919050565b6000602082019050818103600083015261346581612fd1565b9050919050565b6000602082019050818103600083015261348581612ff4565b9050919050565b600060208201905081810360008301526134a581613017565b9050919050565b600060208201905081810360008301526134c58161303a565b9050919050565b600060208201905081810360008301526134e58161305d565b9050919050565b6000602082019050818103600083015261350581613080565b9050919050565b60006020820190508181036000830152613525816130a3565b9050919050565b60006020820190508181036000830152613545816130c6565b9050919050565b600060208201905081810360008301526135658161310c565b9050919050565b600060208201905081810360008301526135858161312f565b9050919050565b600060208201905081810360008301526135a581613152565b9050919050565b600060208201905081810360008301526135c581613175565b9050919050565b600060208201905081810360008301526135e581613198565b9050919050565b60006020820190508181036000830152613605816131bb565b9050919050565b60006020820190506136216000830184613260565b92915050565b6000613631613642565b905061363d828261394d565b919050565b6000604051905090565b600067ffffffffffffffff82111561366757613666613a85565b5b61367082613ab4565b9050602081019050919050565b600067ffffffffffffffff82111561369857613697613a85565b5b6136a182613ab4565b9050602081019050919050565b6000819050602082019050919050565b60008190508160005260206000209050919050565b600081519050919050565b600081519050919050565b600081519050919050565b6000602082019050919050565b600082825260208201905092915050565b600082825260208201905092915050565b600082825260208201905092915050565b600082825260208201905092915050565b600081905092915050565b600061375b826138cf565b9150613766836138cf565b9250827fffffffffffffffffffffffffffffffffffffffffffffffffffffffffffffffff0382111561379b5761379a6139f8565b5b828201905092915050565b60006137b1826138cf565b91506137bc836138cf565b9250826137cc576137cb613a27565b5b828204905092915050565b60006137e2826138cf565b91506137ed836138cf565b9250817fffffffffffffffffffffffffffffffffffffffffffffffffffffffffffffffff0483118215151615613826576138256139f8565b5b828202905092915050565b600061383c826138cf565b9150613847836138cf565b92508282101561385a576138596139f8565b5b828203905092915050565b6000613870826138af565b9050919050565b60008115159050919050565b60007fffffffff0000000000000000000000000000000000000000000000000000000082169050919050565b600073ffffffffffffffffffffffffffffffffffffffff82169050919050565b6000819050919050565b82818337600083830152505050565b60005b838110156139065780820151818401526020810190506138eb565b83811115613915576000848401525b50505050565b6000600282049050600182168061393357607f821691505b6020821081141561394757613946613a56565b5b50919050565b61395682613ab4565b810181811067ffffffffffffffff8211171561397557613974613a85565b5b80604052505050565b6000613989826138cf565b91507fffffffffffffffffffffffffffffffffffffffffffffffffffffffffffffffff8214156139bc576139bb6139f8565b5b600182019050919050565b60006139d2826138cf565b91506139dd836138cf565b9250826139ed576139ec613a27565b5b828206905092915050565b7f4e487b7100000000000000000000000000000000000000000000000000000000600052601160045260246000fd5b7f4e487b7100000000000000000000000000000000000000000000000000000000600052601260045260246000fd5b7f4e487b7100000000000000000000000000000000000000000000000000000000600052602260045260246000fd5b7f4e487b7100000000000000000000000000000000000000000000000000000000600052604160045260246000fd5b6000601f19601f8301169050919050565b7f4552433732313a207472616e7366657220746f206e6f6e20455243373231526560008201527f63656976657220696d706c656d656e7465720000000000000000000000000000602082015250565b7f4f776e61626c653a206e6577206f776e657220697320746865207a65726f206160008201527f6464726573730000000000000000000000000000000000000000000000000000602082015250565b7f4552433732313a20746f6b656e20616c7265616479206d696e74656400000000600082015250565b7f416d6f756e74206d7573742062652067726561746572207468616e207a65726f600082015250565b7f4552433732313a207472616e7366657220746f20746865207a65726f2061646460008201527f7265737300000000000000000000000000000000000000000000000000000000602082015250565b7f4552433732313a20617070726f766520746f2063616c6c657200000000000000600082015250565b7f4552433732313a206f70657261746f7220717565727920666f72206e6f6e657860008201527f697374656e7420746f6b656e0000000000000000000000000000000000000000602082015250565b7f4552433732313a20617070726f76652063616c6c6572206973206e6f74206f7760008201527f6e6572206e6f7220617070726f76656420666f7220616c6c0000000000000000602082015250565b7f4552433732313a2062616c616e636520717565727920666f7220746865207a6560008201527f726f206164647265737300000000000000000000000000000000000000000000602082015250565b7f4552433732313a206f776e657220717565727920666f72206e6f6e657869737460008201527f656e7420746f6b656e0000000000000000000000000000000000000000000000602082015250565b7f4552433732313a206d696e7420746f20746865207a65726f2061646472657373600082015250565b7f496e73756666696369656e7420616d6f756e7420746f206d696e740000000000600082015250565b7f4552433732313a20617070726f76656420717565727920666f72206e6f6e657860008201527f697374656e7420746f6b656e0000000000000000000000000000000000000000602082015250565b7f2e6a736f6e000000000000000000000000000000000000000000000000000000600082015250565b7f4f776e61626c653a2063616c6c6572206973206e6f7420746865206f776e6572600082015250565b7f4552433732313a207472616e73666572206f6620746f6b656e2074686174206960008201527f73206e6f74206f776e0000000000000000000000000000000000000000000000602082015250565b7f496e73756666696369656e742076616c75650000000000000000000000000000600082015250565b7f4552433732313a20617070726f76616c20746f2063757272656e74206f776e6560008201527f7200000000000000000000000000000000000000000000000000000000000000602082015250565b7f4e6f2066756e6420746f20776974686472617700000000000000000000000000600082015250565b7f4552433732313a207472616e736665722063616c6c6572206973206e6f74206f60008201527f776e6572206e6f7220617070726f766564000000000000000000000000000000602082015250565b7f2f00000000000000000000000000000000000000000000000000000000000000600082015250565b613fcd81613865565b8114613fd857600080fd5b50565b613fe481613877565b8114613fef57600080fd5b50565b613ffb81613883565b811461400657600080fd5b50565b614012816138cf565b811461401d57600080fd5b5056fea2646970667358221220039780b19e4ea07e7c297d0006b970af932f01f3029f3385812d1cf3b189534864736f6c63430008040033",
  "immutableReferences": {},
  "source": "// SPDX-License-Identifier: MIT\r\npragma solidity ^0.8.0;\r\n\r\nimport \"@openzeppelin/contracts/token/ERC721/ERC721.sol\";\r\nimport \"@openzeppelin/contracts/utils/Counters.sol\";\r\nimport \"@openzeppelin/contracts/access/Ownable.sol\";\r\n\r\ncontract NFTMinter is ERC721, Ownable {\r\n  using Counters for Counters.Counter;\r\n  using Strings for uint256;\r\n  Counters.Counter tokenIds;\r\n  mapping(uint256 => string) tokenURIs;\r\n\tstring public baseURI;\r\n\tstring public cID;\r\n\tuint256 public totalAmount;\r\n\tuint256 public price;\r\n\taddress public fundAddress;\r\n\r\n  struct RenderToken{\r\n    uint256 id;\r\n    string uri;\r\n\t\taddress owner;\r\n  }\r\n\r\n\tevent minted(string _hash, uint256 _id);\r\n\r\n  constructor(\r\n\t\tstring memory _baseURI,\r\n\t\tstring memory _cID,\r\n\t\tuint256 _totalAmount,\r\n\t\tuint256 _price\r\n\t) ERC721(\"Test\", \"TS\") {\r\n\t\t\r\n\t\tcID = _cID;\r\n\t\tprice = _price;\r\n\t\tbaseURI = _baseURI;\r\n\t\ttotalAmount = _totalAmount;\t\t\r\n\t\tfundAddress = msg.sender;\r\n\t}\r\n\r\n\tfunction _setTokenURI(uint256 _tokenId, string memory _tokenURI) internal {\r\n  \ttokenURIs[_tokenId] = _tokenURI;\r\n  }\r\n\r\n\tfunction setBaseURI(string memory _baseURI) public onlyOwner {\r\n\t\tbaseURI = _baseURI;\r\n\t}\r\n\r\n\tfunction setFundAddress(address _addr) public onlyOwner {\r\n\t\tfundAddress = _addr;\r\n\t}\r\n\r\n\tfunction setPrice(uint256 _price) public onlyOwner {\r\n\t\tprice = _price;\r\n\t}\r\n\r\n\tfunction setCID(string memory _cID) public onlyOwner {\r\n\t\tcID = _cID;\r\n\t}\r\n\r\n\tfunction setTotalAmount(uint256 _totalAmount) public onlyOwner {\r\n\t\ttotalAmount = _totalAmount;\r\n\t}\r\n\r\n\tfunction getBalance() public view returns (uint256) {\r\n    return address(this).balance;\r\n  }\r\n\tfunction getMintedAmount() public view returns(uint256) {\r\n\t\treturn tokenIds.current();\r\n\t}\r\n\r\n  function tokenURI(uint256 _tokenId) public view virtual override returns(string memory) {\r\n\t  require(_exists(_tokenId));\r\n\t  string memory _tokenURI = tokenURIs[_tokenId];\r\n\t  return _tokenURI;\r\n  }\r\n\r\n  function getAllTokens() public view returns(RenderToken[] memory) {\r\n\t  uint256 latestId = tokenIds.current();\r\n\t\tuint256 counter = 0;\r\n\t  RenderToken[] memory result = new RenderToken[](latestId); // latest id is the maximum size of the current tokens.\r\n\r\n\t  for(uint256 i = 0; i < latestId; i++) {\r\n\t    if(_exists(i)){\r\n\t\t    string memory uri = tokenURI(i);\r\n\t\t    result[counter ++] = RenderToken(i, uri, ownerOf(i));\r\n\t    }\r\n\t  }\r\n\r\n\t  return result;\r\n  }\r\n\r\n\tfunction getMyTokens() public view returns(RenderToken[] memory) {\r\n\t  uint256 latestId = tokenIds.current();\r\n\t\tuint256 counter = 0;\r\n\t\tuint256 myCount = 0;\r\n\t\tuint256 i;\r\n\r\n\t  for(i = 0; i < latestId; i++) {\r\n\t    if(_exists(i) && ownerOf(i) == msg.sender) {\r\n\t\t\t\tmyCount ++;\r\n\t    }\r\n\t  }\r\n\r\n\t  RenderToken[] memory result = new RenderToken[](myCount); // latest id is the maximum size of the current tokens.\r\n\r\n\t\tfor(i = 0; i < latestId; i++) {\r\n\t    if(_exists(i) && ownerOf(i) == msg.sender) {\r\n\t\t    string memory uri = tokenURI(i);\r\n\t\t    result[counter ++] = RenderToken(i, uri, msg.sender);\r\n\t    }\r\n\t  }\r\n\r\n\t  return result;\r\n  }\r\n\r\n  function createNFT(uint256 _amount) public payable {\r\n\t\trequire(_amount > 0, \"Amount must be greater than zero\");\r\n\t\trequire(tokenIds.current() + _amount <= totalAmount, \"Insufficient amount to mint\");\r\n\t\trequire(msg.value >= _amount * price, \"Insufficient value\");\r\n\r\n\t\tuint256 newId;\r\n\t\tstring memory uri;\r\n\r\n\t\tfor (uint256 i = 0; i < _amount; i++) {\r\n\t\t\tnewId = tokenIds.current();\r\n\t\t\turi = string(abi.encodePacked(baseURI, cID, '/', Strings.toString(newId + 1), '.json'));\r\n\r\n\t\t  _mint(msg.sender, newId);\r\n\t\t\t_setTokenURI(newId, uri);\r\n\t\t  tokenIds.increment();\r\n\r\n\t\t\temit minted(uri, newId);\r\n\t\t}\r\n  }\r\n\r\n\tfunction withdrawFund() public onlyOwner {\r\n\t\tuint256 balance = address(this).balance;\r\n\t\trequire(balance > 0, \"No fund to withdraw\");\r\n\r\n    address payable _to = payable(fundAddress);\r\n    _to.transfer(balance);\r\n\t}\r\n}",
  "sourcePath": "C:\\_work\\Ethereum-mint\\contracts\\NFTMinter.sol",
  "compiler": {
    "name": "solc",
    "version": "0.8.4+commit.c7e474f2.Emscripten.clang"
  },
  "schemaVersion": "3.4.4",
  "updatedAt": "2021-12-29T08:47:06.999Z",
  "networkType": "ethereum",
  "devdoc": {
    "kind": "dev",
    "methods": {
      "approve(address,uint256)": {
        "details": "See {IERC721-approve}."
      },
      "balanceOf(address)": {
        "details": "See {IERC721-balanceOf}."
      },
      "getApproved(uint256)": {
        "details": "See {IERC721-getApproved}."
      },
      "isApprovedForAll(address,address)": {
        "details": "See {IERC721-isApprovedForAll}."
      },
      "name()": {
        "details": "See {IERC721Metadata-name}."
      },
      "owner()": {
        "details": "Returns the address of the current owner."
      },
      "ownerOf(uint256)": {
        "details": "See {IERC721-ownerOf}."
      },
      "renounceOwnership()": {
        "details": "Leaves the contract without owner. It will not be possible to call `onlyOwner` functions anymore. Can only be called by the current owner. NOTE: Renouncing ownership will leave the contract without an owner, thereby removing any functionality that is only available to the owner."
      },
      "safeTransferFrom(address,address,uint256)": {
        "details": "See {IERC721-safeTransferFrom}."
      },
      "safeTransferFrom(address,address,uint256,bytes)": {
        "details": "See {IERC721-safeTransferFrom}."
      },
      "setApprovalForAll(address,bool)": {
        "details": "See {IERC721-setApprovalForAll}."
      },
      "supportsInterface(bytes4)": {
        "details": "See {IERC165-supportsInterface}."
      },
      "symbol()": {
        "details": "See {IERC721Metadata-symbol}."
      },
      "transferFrom(address,address,uint256)": {
        "details": "See {IERC721-transferFrom}."
      },
      "transferOwnership(address)": {
        "details": "Transfers ownership of the contract to a new account (`newOwner`). Can only be called by the current owner."
      }
    },
    "version": 1
  },
  "userdoc": {
    "kind": "user",
    "methods": {},
    "version": 1
  }
}